{
  "_format": "hh-sol-artifact-1",
  "contractName": "GoofGate",
  "sourceName": "contracts/GoofGate.sol",
  "abi": [
    {
      "inputs": [],
      "stateMutability": "payable",
      "type": "constructor"
    },
    {
      "anonymous": false,
      "inputs": [
        {
          "indexed": true,
          "internalType": "address",
          "name": "from",
          "type": "address"
        },
        {
          "indexed": false,
          "internalType": "uint256",
          "name": "timestamp",
          "type": "uint256"
        },
        {
          "indexed": false,
          "internalType": "string",
          "name": "message",
          "type": "string"
        }
      ],
      "name": "NewGoof",
      "type": "event"
    },
    {
      "inputs": [
        {
          "internalType": "address",
          "name": "",
          "type": "address"
        }
      ],
      "name": "biggestGoofMap",
      "outputs": [
        {
          "internalType": "uint256",
          "name": "",
          "type": "uint256"
        }
      ],
      "stateMutability": "view",
      "type": "function"
    },
    {
      "inputs": [],
      "name": "getAllGoofs",
      "outputs": [
        {
          "components": [
            {
              "internalType": "address",
              "name": "goofer",
              "type": "address"
            },
            {
              "internalType": "string",
              "name": "message",
              "type": "string"
            },
            {
              "internalType": "uint256",
              "name": "timestamp",
              "type": "uint256"
            }
          ],
          "internalType": "struct GoofGate.Goof[]",
          "name": "",
          "type": "tuple[]"
        }
      ],
      "stateMutability": "view",
      "type": "function"
    },
    {
      "inputs": [],
      "name": "getBiggestGoof",
      "outputs": [
        {
          "internalType": "address",
          "name": "",
          "type": "address"
        }
      ],
      "stateMutability": "view",
      "type": "function"
    },
    {
      "inputs": [],
      "name": "getTotalGoofs",
      "outputs": [
        {
          "internalType": "uint256",
          "name": "",
          "type": "uint256"
        }
      ],
      "stateMutability": "view",
      "type": "function"
    },
    {
      "inputs": [
        {
          "internalType": "string",
          "name": "_message",
          "type": "string"
        }
      ],
      "name": "goof",
      "outputs": [],
      "stateMutability": "nonpayable",
      "type": "function"
    },
    {
      "inputs": [
        {
          "internalType": "address",
          "name": "",
          "type": "address"
        }
      ],
      "name": "lastWavedAt",
      "outputs": [
        {
          "internalType": "uint256",
          "name": "",
          "type": "uint256"
        }
      ],
      "stateMutability": "view",
      "type": "function"
    }
  ],
  "bytecode": "0x60806040526200004f6040518060400160405280601c81526020017f476f6f6620636f6e747261637420696e69742120504f474745525321000000008152506200007760201b62000a931760201c565b606444426200005f9190620001c4565b6200006b919062000261565b60018190555062000308565b62000117816040516024016200008e919062000184565b6040516020818303038152906040527f41304fac000000000000000000000000000000000000000000000000000000007bffffffffffffffffffffffffffffffffffffffffffffffffffffffff19166020820180517bffffffffffffffffffffffffffffffffffffffffffffffffffffffff83818316178352505050506200011a60201b60201c565b50565b60008151905060006a636f6e736f6c652e6c6f679050602083016000808483855afa5050505050565b60006200015082620001a8565b6200015c8185620001b3565b93506200016e8185602086016200022b565b6200017981620002f7565b840191505092915050565b60006020820190508181036000830152620001a0818462000143565b905092915050565b600081519050919050565b600082825260208201905092915050565b6000620001d18262000221565b9150620001de8362000221565b9250827fffffffffffffffffffffffffffffffffffffffffffffffffffffffffffffffff0382111562000216576200021562000299565b5b828201905092915050565b6000819050919050565b60005b838110156200024b5780820151818401526020810190506200022e565b838111156200025b576000848401525b50505050565b60006200026e8262000221565b91506200027b8362000221565b9250826200028e576200028d620002c8565b5b828206905092915050565b7f4e487b7100000000000000000000000000000000000000000000000000000000600052601160045260246000fd5b7f4e487b7100000000000000000000000000000000000000000000000000000000600052601260045260246000fd5b6000601f19601f8301169050919050565b6116b080620003186000396000f3fe608060405234801561001057600080fd5b50600436106100625760003560e01c806345d84b63146100675780638635586a14610085578063a42a4663146100a3578063ac59f2da146100d3578063cd80a46f146100f1578063dd8bf6a814610121575b600080fd5b61006f61013d565b60405161007c9190611178565b60405180910390f35b61008d610495565b60405161009a9190611193565b60405180910390f35b6100bd60048036038101906100b89190610e4c565b6105e6565b6040516100ca91906112d5565b60405180910390f35b6100db6105fe565b6040516100e891906112d5565b60405180910390f35b61010b60048036038101906101069190610e4c565b610649565b60405161011891906112d5565b60405180910390f35b61013b60048036038101906101369190610e75565b610661565b005b600080600090506000805b60048054905081101561046957600073ffffffffffffffffffffffffffffffffffffffff168373ffffffffffffffffffffffffffffffffffffffff16141561029c57600481815481106101c4577f4e487b7100000000000000000000000000000000000000000000000000000000600052603260045260246000fd5b9060005260206000200160009054906101000a900473ffffffffffffffffffffffffffffffffffffffff169250600260006004838154811061022f577f4e487b7100000000000000000000000000000000000000000000000000000000600052603260045260246000fd5b9060005260206000200160009054906101000a900473ffffffffffffffffffffffffffffffffffffffff1673ffffffffffffffffffffffffffffffffffffffff1673ffffffffffffffffffffffffffffffffffffffff168152602001908152602001600020549150610456565b8160026000600484815481106102db577f4e487b7100000000000000000000000000000000000000000000000000000000600052603260045260246000fd5b9060005260206000200160009054906101000a900473ffffffffffffffffffffffffffffffffffffffff1673ffffffffffffffffffffffffffffffffffffffff1673ffffffffffffffffffffffffffffffffffffffff1681526020019081526020016000205411156104555760048181548110610381577f4e487b7100000000000000000000000000000000000000000000000000000000600052603260045260246000fd5b9060005260206000200160009054906101000a900473ffffffffffffffffffffffffffffffffffffffff16925060026000600483815481106103ec577f4e487b7100000000000000000000000000000000000000000000000000000000600052603260045260246000fd5b9060005260206000200160009054906101000a900473ffffffffffffffffffffffffffffffffffffffff1673ffffffffffffffffffffffffffffffffffffffff1673ffffffffffffffffffffffffffffffffffffffff1681526020019081526020016000205491505b5b8080610461906114f8565b915050610148565b5061048d604051806060016040528060248152602001611657602491398383610b2c565b819250505090565b60606005805480602002602001604051908101604052809291908181526020016000905b828210156105dd57838290600052602060002090600302016040518060600160405290816000820160009054906101000a900473ffffffffffffffffffffffffffffffffffffffff1673ffffffffffffffffffffffffffffffffffffffff1673ffffffffffffffffffffffffffffffffffffffff168152602001600182018054610542906114c6565b80601f016020809104026020016040519081016040528092919081815260200182805461056e906114c6565b80156105bb5780601f10610590576101008083540402835291602001916105bb565b820191906000526020600020905b81548152906001019060200180831161059e57829003601f168201915b50505050508152602001600282015481525050815260200190600101906104b9565b50505050905090565b60036020528060005260406000206000915090505481565b60006106416040518060400160405280601681526020017f5765206861766520256420746f74616c20676f6f667300000000000000000000815250600054610bcb565b600054905090565b60026020528060005260406000206000915090505481565b42600f600360003373ffffffffffffffffffffffffffffffffffffffff1673ffffffffffffffffffffffffffffffffffffffff168152602001908152602001600020546106ae91906113f2565b106106ee576040517f08c379a00000000000000000000000000000000000000000000000000000000081526004016106e5906112b5565b60405180910390fd5b42600360003373ffffffffffffffffffffffffffffffffffffffff1673ffffffffffffffffffffffffffffffffffffffff16815260200190815260200160002081905550600160008082825461074491906113f2565b92505081905550600260003373ffffffffffffffffffffffffffffffffffffffff1673ffffffffffffffffffffffffffffffffffffffff168152602001908152602001600020600081548092919061079b906114f8565b91905055506004339080600181540180825580915050600190039060005260206000200160009091909190916101000a81548173ffffffffffffffffffffffffffffffffffffffff021916908373ffffffffffffffffffffffffffffffffffffffff160217905550600560405180606001604052803373ffffffffffffffffffffffffffffffffffffffff16815260200183815260200142815250908060018154018082558091505060019003906000526020600020906003020160009091909190915060008201518160000160006101000a81548173ffffffffffffffffffffffffffffffffffffffff021916908373ffffffffffffffffffffffffffffffffffffffff16021790555060208201518160010190805190602001906108c2929190610d2c565b50604082015181600201555050606460015442446108e091906113f2565b6108ea91906113f2565b6108f49190611541565b600181905550603260015411610a40576109436040518060400160405280600781526020017f257320776f6e210000000000000000000000000000000000000000000000000081525033610c67565b6000655af3107a4000905047811115610991576040517f08c379a000000000000000000000000000000000000000000000000000000000815260040161098890611275565b60405180910390fd5b60003373ffffffffffffffffffffffffffffffffffffffff16826040516109b790611163565b60006040518083038185875af1925050503d80600081146109f4576040519150601f19603f3d011682016040523d82523d6000602084013e6109f9565b606091505b5050905080610a3d576040517f08c379a0000000000000000000000000000000000000000000000000000000008152600401610a3490611295565b60405180910390fd5b50505b3373ffffffffffffffffffffffffffffffffffffffff167f22ce55a036ce8303ce661b4b92d580c0816ec7619d921e69faa119602779357d4283604051610a889291906112f0565b60405180910390a250565b610b2981604051602401610aa791906111b5565b6040516020818303038152906040527f41304fac000000000000000000000000000000000000000000000000000000007bffffffffffffffffffffffffffffffffffffffffffffffffffffffff19166020820180517bffffffffffffffffffffffffffffffffffffffffffffffffffffffff8381831617835250505050610d03565b50565b610bc6838383604051602401610b4493929190611207565b6040516020818303038152906040527f07c81217000000000000000000000000000000000000000000000000000000007bffffffffffffffffffffffffffffffffffffffffffffffffffffffff19166020820180517bffffffffffffffffffffffffffffffffffffffffffffffffffffffff8381831617835250505050610d03565b505050565b610c638282604051602401610be1929190611245565b6040516020818303038152906040527f9710a9d0000000000000000000000000000000000000000000000000000000007bffffffffffffffffffffffffffffffffffffffffffffffffffffffff19166020820180517bffffffffffffffffffffffffffffffffffffffffffffffffffffffff8381831617835250505050610d03565b5050565b610cff8282604051602401610c7d9291906111d7565b6040516020818303038152906040527f319af333000000000000000000000000000000000000000000000000000000007bffffffffffffffffffffffffffffffffffffffffffffffffffffffff19166020820180517bffffffffffffffffffffffffffffffffffffffffffffffffffffffff8381831617835250505050610d03565b5050565b60008151905060006a636f6e736f6c652e6c6f679050602083016000808483855afa5050505050565b828054610d38906114c6565b90600052602060002090601f016020900481019282610d5a5760008555610da1565b82601f10610d7357805160ff1916838001178555610da1565b82800160010185558215610da1579182015b82811115610da0578251825591602001919060010190610d85565b5b509050610dae9190610db2565b5090565b5b80821115610dcb576000816000905550600101610db3565b5090565b6000610de2610ddd84611351565b611320565b905082815260208101848484011115610dfa57600080fd5b610e05848285611484565b509392505050565b600081359050610e1c8161163f565b92915050565b600082601f830112610e3357600080fd5b8135610e43848260208601610dcf565b91505092915050565b600060208284031215610e5e57600080fd5b6000610e6c84828501610e0d565b91505092915050565b600060208284031215610e8757600080fd5b600082013567ffffffffffffffff811115610ea157600080fd5b610ead84828501610e22565b91505092915050565b6000610ec283836110f5565b905092915050565b610ed381611448565b82525050565b610ee281611448565b82525050565b6000610ef382611391565b610efd81856113b4565b935083602082028501610f0f85611381565b8060005b85811015610f4b5784840389528151610f2c8582610eb6565b9450610f37836113a7565b925060208a01995050600181019050610f13565b50829750879550505050505092915050565b6000610f688261139c565b610f7281856113d0565b9350610f82818560208601611493565b610f8b8161162e565b840191505092915050565b6000610fa18261139c565b610fab81856113e1565b9350610fbb818560208601611493565b610fc48161162e565b840191505092915050565b6000610fdc602a836113e1565b91507f417474656d707420746f207769746864726177206d6f7265207468616e20636f60008301527f6e747261637420686173000000000000000000000000000000000000000000006020830152604082019050919050565b60006110426000836113c5565b9150600082019050919050565b600061105c6029836113e1565b91507f4661696c65642077697468207769746864726177206d6f6e65792066726f6d2060008301527f636f6e74726163742e00000000000000000000000000000000000000000000006020830152604082019050919050565b60006110c26008836113e1565b91507f576169742031356d0000000000000000000000000000000000000000000000006000830152602082019050919050565b600060608301600083015161110d6000860182610eca565b50602083015184820360208601526111258282610f5d565b915050604083015161113a6040860182611145565b508091505092915050565b61114e8161147a565b82525050565b61115d8161147a565b82525050565b600061116e82611035565b9150819050919050565b600060208201905061118d6000830184610ed9565b92915050565b600060208201905081810360008301526111ad8184610ee8565b905092915050565b600060208201905081810360008301526111cf8184610f96565b905092915050565b600060408201905081810360008301526111f18185610f96565b90506112006020830184610ed9565b9392505050565b600060608201905081810360008301526112218186610f96565b90506112306020830185610ed9565b61123d6040830184611154565b949350505050565b6000604082019050818103600083015261125f8185610f96565b905061126e6020830184611154565b9392505050565b6000602082019050818103600083015261128e81610fcf565b9050919050565b600060208201905081810360008301526112ae8161104f565b9050919050565b600060208201905081810360008301526112ce816110b5565b9050919050565b60006020820190506112ea6000830184611154565b92915050565b60006040820190506113056000830185611154565b81810360208301526113178184610f96565b90509392505050565b6000604051905081810181811067ffffffffffffffff82111715611347576113466115ff565b5b8060405250919050565b600067ffffffffffffffff82111561136c5761136b6115ff565b5b601f19601f8301169050602081019050919050565b6000819050602082019050919050565b600081519050919050565b600081519050919050565b6000602082019050919050565b600082825260208201905092915050565b600081905092915050565b600082825260208201905092915050565b600082825260208201905092915050565b60006113fd8261147a565b91506114088361147a565b9250827fffffffffffffffffffffffffffffffffffffffffffffffffffffffffffffffff0382111561143d5761143c611572565b5b828201905092915050565b60006114538261145a565b9050919050565b600073ffffffffffffffffffffffffffffffffffffffff82169050919050565b6000819050919050565b82818337600083830152505050565b60005b838110156114b1578082015181840152602081019050611496565b838111156114c0576000848401525b50505050565b600060028204905060018216806114de57607f821691505b602082108114156114f2576114f16115d0565b5b50919050565b60006115038261147a565b91507fffffffffffffffffffffffffffffffffffffffffffffffffffffffffffffffff82141561153657611535611572565b5b600182019050919050565b600061154c8261147a565b91506115578361147a565b925082611567576115666115a1565b5b828206905092915050565b7f4e487b7100000000000000000000000000000000000000000000000000000000600052601160045260246000fd5b7f4e487b7100000000000000000000000000000000000000000000000000000000600052601260045260246000fd5b7f4e487b7100000000000000000000000000000000000000000000000000000000600052602260045260246000fd5b7f4e487b7100000000000000000000000000000000000000000000000000000000600052604160045260246000fd5b6000601f19601f8301169050919050565b61164881611448565b811461165357600080fd5b5056fe546865206269676765737420676f6f66206973202573207769746820256420676f6f6673a2646970667358221220546ee4dc12fdf92567582413de03a4a83052deb5bd81d69bc6546354704dd7ee64736f6c63430008000033",
  "linkReferences": {},
  "deployedLinkReferences": {}
}